:020000040800F2
:1000000000200020C15E000899030008A103000839
:10001000A9030008B1030008B903000800000000AC
:10002000000000000000000000000000C9030008FC
:10003000C103000800000000D1030008D903000834
:100040000D5F00080D5F00080D5F00080D5F0008E0
:100050000D5F00080D5F00080D5F00080D5F0008D0
:100060000D5F00080D5F00080D5F00080D5F0008C0
:100070000D5F00080D5F00080D5F00080D5F0008B0
:100080000D5F00080D5F0008E1030008000000009C
:100090000000000000000000000000000D5F0008EC
:1000A0000D5F00080D5F00080D5F00080D5F000880
:1000B0000D5F00080D5F0008D10100080D5F00080A
:1000C0000D5F00080D5F00080D5F00080D5F000860
:1000D0000D5F00080D5F00080D5F00080D5F000850
:1000E0000D5F00080D5F00080D5F000800000000B4
:1000F0000000000000000000000000000000000000
:1001000000000000000000000000000000000000EF
:1001100000000000000000000D5F00080D5F0008F7
:1001200000000000000000000000000000000000CF
:1001300000000000000000000000000000000000BF
:1001400000000000000000000000000000000000AF
:10015000000000000000000000000000000000009F
:10016000000000000000000000000000000000008F
:10017000000000000000000000000000000000007F
:10018000000000000000000000000000000000006F
:10019000000000000000000000000000000000005F
:1001A000000000000000000000000000000000004F
:1001B000000000000000000000000000000000003F
:1001C0000000000000000000000000005FF808F1DF
:1001D00080B500AF40F2B403C2F200035B689847F9
:1001E00080BD00BF80B500AF40F2AC00C2F200009D
:1001F00000F0BCF840F2B400C2F2000000F034FE9F
:1002000040F2C400C2F2000000F03EF840F2B40335
:10021000C2F200039B68984740F2AC03C2F20003AD
:100220001B68984780BD00BF80B400AFBD4680BC4E
:10023000704700BF80B500AFFFF7D4FF40F2C403A2
:10024000C2F200039B6898474FF00003184680BD38
:1002500080B400AFBD4680BC704700BF80B400AF23
:10026000BD4680BC704700BF80B500AF40F2B4030C
:10027000C2F20003DB68984740F2AC03C2F200030D
:100280005B689847F2E700BF80B483B000AF786046
:1002900040F25D23C0F600037A68136040F25123F8
:1002A000C0F600037A68536040F26923C0F6000389
:1002B0007A68936007F10C07BD4680BC704700BFA9
:1002C00080B483B000AF4FF000037B8039E07A88C0
:1002D00040F2D003C2F2000353F822307B607A88E8
:1002E00040F2D003C2F200039B1893F840303B80E9
:1002F0003B88002B03D07B68C3F57A737B607A68F8
:1003000013464FEA03139B187B607A684CF6CD4383
:10031000CCF6CC43A3FB02134FEAD3037B607B688C
:1003200003F164037B607A8840F2D003C2F20003D9
:1003300002F10802796843F822107B8803F1010377
:100340007B807B88072BC2D907F10C07BD4680BC98
:10035000704700BF80B400AFBD4680BC704700BF8F
:1003600080B500AFFFF7ACFF80BD00BF80B483B0A5
:1003700000AF786040F25533C0F600037A6813602E
:1003800040F26133C0F600037A68536007F10C074E
:10039000BD4680BC704700BF80B400AFFEE700BF21
:1003A00080B400AFFEE700BF80B400AFFEE700BF3F
:1003B00080B400AFFEE700BF80B400AFFEE700BF2F
:1003C00080B400AFFEE700BF80B400AFFEE700BF1F
:1003D00080B400AFFEE700BF80B400AFFEE700BF0F
:1003E00080B500AF4FF41050C4F201004FF4087113
:1003F00003F04CF880BD00BF80B582B000AF4FF075
:100400000003FB804FF40060C4F200004FF00201D3
:1004100004F006FE0346002B7BD04FF40060C4F2CC
:1004200000004FF0020104F02BFE4FF40060C4F214
:1004300000004FF0000104F087FC40F2A803C2F274
:1004400000031B88002B17D140F2A803C2F200035F
:100450004FF001021A804FF48050C4F201004FF4B3
:10046000005101F037FC4FF40060C4F200004FF47B
:10047000FA7104F085FC4CE040F2A803C2F20003DC
:100480004FF000021A8040F2AA03C2F200031B8858
:10049000072B24D84FF48050C4F201004FF40051D0
:1004A00001F00AFC40F2AA03C2F200031B881A46BC
:1004B00040F2D003C2F2000302F1080253F82230E6
:1004C000FB8040F2AA03C2F200031B8803F1010380
:1004D0009AB240F2AA03C2F200031A8011E042F677
:1004E000E063FB804FF48050C4F201004FF40051F0
:1004F00001F0E2FB40F2AA03C2F200034FF0000257
:100500001A80FB884FF40060C4F20000194604F022
:1005100037FC07F10807BD4680BD00BF80B582B03B
:1005200000AF4FF01E033B714FF000037B714FF0A3
:100530000003BB714FF00103FB7107F10403184680
:1005400005F0DAFB07F10807BD4680BD80B500AFB6
:100550004FF480304FF4802100F0A0FD4FF4803044
:1005600000F0F2FC00F034FD4FF0010000F0BAFDA5
:100570004FF0020000F0ECFD4FF0000000F038FEFC
:100580004FF004004FF0010101F074F84FF0040047
:100590004FF0010101F044F84FF008004FF0010165
:1005A00001F03EF84FF010004FF0010101F038F873
:1005B0004FF001004FF0010101F032F84FF40070EC
:1005C0004FF0010101F02CF84FF001004FF0010154
:1005D00000F0FCFF80BD00BF80B582B000AF4FF0DF
:1005E0001003FB714FF00303BB714FF40073BB802A
:1005F0004FF48050C4F2010007F10403194601F0E2
:1006000015FA4FF01003FB714FF40053BB804FF00D
:100610000303BB714FF48050C4F2010007F10403DF
:10062000194601F003FA4FF00003FB714FF003038A
:10063000BB714FF00F03BB804FF40060C4F20100A8
:1006400007F10403194601F0F1F94FF48050C4F2A8
:10065000010007F10403194601F0E8F94FF0030324
:10066000BB714FF04803FB714FF01003BB804FF498
:100670000060C4F2010007F10403194601F0D6F945
:100680004FF02003BB804FF40060C4F2010007F17B
:100690000403194601F0CAF94FF04003BB804FF440
:1006A0000060C4F2010007F10403194601F0BEF92D
:1006B0004FF08003BB804FF40060C4F2010007F1EB
:1006C0000403194601F0B2F94FF01003BB804FF458
:1006D0008050C4F2010007F10403194601F0A6F9A5
:1006E0004FF02003BB804FF48050C4F2010007F1AB
:1006F0000403194601F09AF94FF00103BB804FF44F
:100700004060C4F2010007F10403194601F08EF9BC
:100710004FF00203BB804FF44060C4F2010007F1C8
:100720000403194601F082F907F10807BD4680BDB0
:1007300080B588B000AF4FF01803BB8245F2F0538C
:100740003B834FF00003FB824FF000037B834FF4A9
:100750000060C4F2000007F11403194603F006F824
:100760004FF06003BB804FF00103FB804FF00003AC
:10077000BB814FF4FA637B814FF40060C4F2000048
:1007800007F10403194603F07FF84FF40060C4F248
:1007900000004FF0010103F009FC4FF40060C4F2C7
:1007A00000004FF002014FF0010203F047FC07F197
:1007B0002007BD4680BD00BF80B590B000AF4FF0B0
:1007C0000800C4F2020004F061FE42F24C43C4F29D
:1007D00001037B6140F22803C2F20003BB614FF0CA
:1007E0000003FB614FF008033B624FF000037B62A4
:1007F0004FF08003BB624FF48073FB624FF40063E1
:100800003B634FF020037B634FF40053BB634FF017
:100810000003FB634FF00800C4F2020007F1140369
:10082000194604F043FF4FF00800C4F202004FF0F5
:10083000010104F0B1FF4FF000033B604FF00103F2
:100840003B714FF001037B714FF46023BB604FF0AD
:100850000003FB604FF008033B744FF41050C4F2E8
:1008600001003B46194602F0DDF84FF41050C4F287
:1008700001004FF001014FF001024FF0050302F0BB
:1008800079FA4FF41050C4F201004FF003014FF019
:1008900002024FF0050302F06DFA4FF41050C4F25B
:1008A00001004FF00C014FF003024FF0050302F07E
:1008B00061FA4FF41050C4F201004FF00D014FF0F7
:1008C00004024FF0050302F055FA4FF41050C4F241
:1008D00001004FF00A014FF005024FF0050302F04E
:1008E00049FA4FF41050C4F201004FF00B014FF0E1
:1008F00006024FF0050302F03DFA4FF41050C4F227
:1009000001004FF000014FF007024FF0050302F025
:1009100031FA4FF41050C4F201004FF002014FF0D1
:1009200008024FF0050302F025FA4FF41050C4F20C
:1009300001004FF0010102F0EFF84FF41050C4F243
:1009400001004FF0010102F003F94FF41050C4F21E
:10095000010002F03DF900BF4FF41050C4F2010055
:1009600002F046F90346002BF6D14FF41050C4F2C2
:10097000010002F059F900BF4FF41050C4F2010019
:1009800002F062F90346002BF6D14FF41050C4F286
:1009900001004FF408714FF0010202F0F5F84FF436
:1009A0001050C4F201004FF0010102F069F907F1A3
:1009B0004007BD4680BD00BF80B483B000AF4FF09C
:1009C00000037B604FF000037B6031E040F22803BE
:1009D000C2F200037A684FF0000143F8221040F29F
:1009E0002803C2F200037A6802F108014DF2206286
:1009F000C0F2130243F8212040F22803C2F20003A0
:100A00007A6802F110014AF64042C0F2270243F828
:100A1000212040F22803C2F200037A6802F1180292
:100A20004FF0000143F822107B6803F101037B6063
:100A30007B68072BCAD940F22803C2F200034EF2AA
:100A40009072C0F214021A6240F22803C2F200034C
:100A500043F2E022C0F229021A6440F22803C2F2F3
:100A600000034DF2F012C0F215025A6240F2280360
:100A7000C2F200034EF2C042C0F228025A6440F2B1
:100A80002803C2F200034AF6E022C0F215029A627D
:100A900040F22803C2F2000349F2A062C0F2280229
:100AA0009A6440F22803C2F2000347F26022C0F2C7
:100AB0001402DA6240F22803C2F200034CF62072FC
:100AC000C0F22902DA6440F22803C2F200034DF2B8
:100AD0002062C0F213021A6340F22803C2F200033C
:100AE0004AF64042C0F227021A6540F22803C2F2D9
:100AF00000034DF22062C0F213025A6340F2280351
:100B0000C2F200034AF64042C0F227025A6540F2A0
:100B10002803C2F200034DF22062C0F213029A636E
:100B200040F22803C2F200034AF64042C0F2270214
:100B30009A6540F22803C2F200034DF22062C0F22F
:100B40001302DA6340F22803C2F200034AF640427D
:100B5000C0F22702DA654FF000037B6037E040F215
:100B60002803C2F200037A6802F1100253F822202F
:100B700040F22803C2F20003796801F1080153F83A
:100B80002130D11A40F22803C2F200037A6802F140
:100B9000180243F8221040F22803C2F200037A68D8
:100BA00002F1180253F822204FF44A43C3F69A3355
:100BB000B3FBF2F140F22803C2F200037A6802F1BB
:100BC000180243F822107B6803F101037B607B6805
:100BD000072BC4D907F10C07BD4680BC704700BF86
:100BE00080B487B000AF4FF000037B824FF000036A
:100BF0007B825EE07A8A40F22803C2F2000353F857
:100C000022304FF47A7202FB03F37B617A8A40F25E
:100C10002803C2F2000302F1100253F82230FB60F5
:100C20007A8A40F22803C2F2000302F1080253F864
:100C30002230BB607A8A40F22803C2F2000302F13C
:100C4000180253F822307B607A69FB689A4202D915
:100C5000FB687B610BE07A69BB689A4204D97A69C8
:100C6000BB68D31A7B6102E04FF000037B617B69B4
:100C70007A6802FB03F37B617A694DF68363C4F201
:100C80001B33A3FB02134FEA93437B617B69B3F5EC
:100C90007A7F02D94FF47A737B617A8A40F2D0036B
:100CA000C2F20003796943F822107B8A03F1010341
:100CB0007B827B8A072B9DD907F11C07BD4680BC30
:100CC000704700BF80B500AF4FF40060C4F2010070
:100CD0004FF0100100F098FF03461A4640F2D0038F
:100CE000C2F2000383F840204FF40060C4F2010018
:100CF0004FF0200100F088FF03461A4640F2D0036F
:100D0000C2F2000383F841204FF40060C4F20100F6
:100D10004FF0400100F078FF03461A4640F2D0033E
:100D2000C2F2000383F842204FF40060C4F20100D5
:100D30004FF0800100F068FF03461A4640F2D003EE
:100D4000C2F2000383F843204FF48050C4F2010044
:100D50004FF0100100F058FF03461A4640F2D0034E
:100D6000C2F2000383F844204FF48050C4F2010023
:100D70004FF0200100F048FF03461A4640F2D0032E
:100D8000C2F2000383F845204FF44060C4F2010032
:100D90004FF0010100F038FF03461A4640F2D0033D
:100DA000C2F2000383F846204FF44060C4F2010011
:100DB0004FF0020100F028FF03461A4640F2D0032C
:100DC000C2F2000383F8472080BD00BF80B500AFAA
:100DD000FFF706FFFFF776FF80BD00BF80B582B04A
:100DE00000AF4FF00003FB802BE0FA8840F2D00305
:100DF000C2F200034FF0000143F82210FA8840F2DB
:100E0000D003C2F200039B184FF0000283F8402089
:100E1000FA8840F2D003C2F2000302F1080240F265
:100E2000E24143F82210F988FB88DAB240F2D0039D
:100E3000C2F200035B1883F84820FB8803F101032A
:100E4000FB80FB88072BD0D9FFF780FBFFF766FB01
:100E5000FFF7B2FCFFF7B0FDFFF76AFCFFF7BCFB42
:100E600007F10807BD4680BD80B483B000AF78604D
:100E70007A6840F2F933C0F60003536040F6DD5360
:100E8000C0F600037A68936040F6CD53C0F60003C5
:100E90007A68D36007F10C07BD4680BC704700BF7D
:100EA00080B400AF4FF48053C4F202034FF4805279
:100EB000C4F20202126842F001021A604FF480523A
:100EC000C4F202024FF48053C4F2020359684FF097
:100ED0000003CFF6FF030B4053604FF48053C4F27E
:100EE00002034FF48052C4F20202126822F08472AC
:100EF00022F480321A604FF48053C4F202034FF49C
:100F00008052C4F20202126822F480221A604FF466
:100F10008053C4F202034FF48052C4F202025268BA
:100F200022F4FE025A604FF48053C4F202034FF4DD
:100F30001F029A604FF48053C4F202034FF0000284
:100F4000DA62BD4680BC704780B483B000AF786081
:100F50004FF48053C4F202034FF48052C4F20202F1
:100F6000126822F480321A604FF48053C4F20203F4
:100F70004FF48052C4F20202126822F480221A60F6
:100F80007B68B3F5803F03D0B3F5802F0DD019E017
:100F90004FF48053C4F202034FF48052C4F20202B1
:100FA000126842F480321A600DE04FF48053C4F2AC
:100FB00002034FF48052C4F20202126842F4A022EB
:100FC0001A6000E000BF07F10C07BD4680BC704707
:100FD00080B582B000AF4FF000033B604FF00003DC
:100FE000FB714FF00003BB714FF0310000F0F0FBDC
:100FF0000346BB713B6803F101033B603B68B3F5FB
:10100000A06F02D0BB79002BEED04FF0310000F082
:10101000DFFB0346002B03D04FF00103FB7102E01E
:101020004FF00003FB71FB79184607F10807BD4636
:1010300080BD00BF80B485B000AF0346FB714FF0A8
:101040000003FB604FF48053C4F202031B68FB6093
:10105000FB6823F0F803FB60FB794FEAC303FA68EF
:101060001343FB604FF48053C4F20203FA681A6022
:1010700007F11407BD4680BC704700BF80B483B041
:1010800000AF0346FB714FF00003C4F24223FA792C
:101090001A6007F10C07BD4680BC704780B485B06C
:1010A00000AF786039604FF00003FB604FF480536D
:1010B000C4F202035B68FB60FB6823F47413FB60FB
:1010C0007A683B681343FA681343FB604FF480531C
:1010D000C4F20203FA685A6007F11407BD4680BCE7
:1010E000704700BF80B483B000AF0346FB714FF080
:1010F0006003C4F24223FA791A6007F10C07BD4677
:1011000080BC704780B485B000AF786039604FF024
:101110000003FB604FF48053C4F20203DB6AFB6000
:10112000FB6823F4803323F00F03FB607A683B688D
:101130001343FA681343FB604FF48053C4F2020375
:10114000FA68DA6207F11407BD4680BC704700BF39
:1011500080B485B000AF78604FF00003FB604FF4BF
:101160008053C4F202035B68FB60FB6823F0030357
:10117000FB60FA687B681343FB604FF48053C4F252
:101180000203FA685A6007F11407BD4680BC704735
:1011900080B400AF4FF48053C4F202035B68DBB24B
:1011A00003F00C03DBB21846BD4680BC704700BF9D
:1011B00080B485B000AF78604FF00003FB604FF45F
:1011C0008053C4F202035B68FB60FB6823F0F0030A
:1011D000FB60FA687B681343FB604FF48053C4F2F2
:1011E0000203FA685A6007F11407BD4680BC7047D5
:1011F00080B485B000AF78604FF00003FB604FF41F
:101200008053C4F202035B68FB60FB6823F4E06375
:10121000FB60FA687B681343FB604FF48053C4F2B1
:101220000203FA685A6007F11407BD4680BC704794
:1012300080B485B000AF78604FF00003FB604FF4DE
:101240008053C4F202035B68FB60FB6823F46053C5
:10125000FB607B684FEAC303FA681343FB604FF4FB
:101260008053C4F20203FA685A6007F11407BD46BE
:1012700080BC704780B483B000AF02460B46FA7161
:10128000BB71BB79002B0ED041F20903C4F20203FB
:1012900041F20902C4F202021278D1B2FA790A4389
:1012A000D2B21A7010E041F20903C4F2020341F213
:1012B0000902C4F202021278D1B2FA796FEA02028C
:1012C000D2B20A40D2B21A7007F10C07BD4680BCF8
:1012D000704700BF80B483B000AF78604FF0D80390
:1012E000C4F242237A681A6007F10C07BD4680BC3D
:1012F000704700BF80B485B000AF78604FF0000346
:10130000FB604FF48053C4F202035B68FB60FB6830
:1013100023F44043FB60FA687B681343FB604FF49F
:101320008053C4F20203FA685A6007F11407BD46FD
:1013300080BC704780B483B000AF0346FB714FF4AC
:101340008153C4F202034FF000021A704FF481532C
:10135000C4F202034FF000021A70FB79012B02D095
:10136000042B08D00FE04FF48153C4F202034FF076
:1013700001021A7008E04FF48153C4F202034FF0E7
:1013800005021A7000E000BF07F10C07BD4680BCE3
:10139000704700BF80B483B000AF0346FB714FF4C9
:1013A0009063C4F24223FA791A6007F10C07BD4634
:1013B00080BC704780B483B000AF78604FF4805336
:1013C000C4F202034FF48052C4F20202116A7A6836
:1013D0000A431A6207F10C07BD4680BC704700BF84
:1013E00080B483B000AF0346FB7140F23C43C4F2CB
:1013F0004223FA791A6007F10C07BD4680BC70479A
:1014000080B489B000AF78604FF00003FB614FF00B
:101410000003BB614FF000037B614FF000033B61B1
:101420004FF00003FB604FF48053C4F202035B688B
:1014300003F00C03FB61FB69042B0AD0082B0FD0CF
:10144000002B47D17A684FF49053C0F27A031360AF
:1014500047E07A684FF49053C0F27A03136040E09B
:101460004FF48053C4F202035B6803F47013BB6152
:101470004FF48053C4F202035B6803F480337B6152
:10148000BB694FEA934303F10203BB617B69002B05
:1014900009D1BA694FF41063C0F23D0303FB02F2B5
:1014A0007B681A601DE04FF48053C4F20203DB6ACC
:1014B00003F00F0303F10103FB604FF49053C0F2FC
:1014C0007A03FA68B3FBF2F3BA6902FB03F27B68B2
:1014D0001A6006E07A684FF49053C0F27A03136002
:1014E00000BF4FF48053C4F202035B6803F0F003C3
:1014F000FB61FB694FEA1313FB6140F20003C2F288
:101500000003FA699B181B78DBB23B617B681A68A1
:101510003B6922FA03F27B685A604FF48053C4F2AD
:1015200002035B6803F4E063FB61FB694FEA13238A
:10153000FB6140F20003C2F20003FA699B181B78BA
:10154000DBB23B617B685A683B6922FA03F27B6835
:101550009A604FF48053C4F202035B6803F4605353
:10156000FB61FB694FEAD323FB6140F20003C2F247
:101570000003FA699B181B78DBB23B617B685A68F1
:101580003B6922FA03F27B68DA604FF48053C4F2BD
:1015900002035B6803F44043FB61FB694FEA93334A
:1015A000FB6140F21003C2F20003FA699B181B783A
:1015B000DBB23B617B68DA683B69B2FBF3F27B68C4
:1015C0001A6107F12407BD4680BC704780B483B020
:1015D00000AF78600B46FB70FB78002B0CD04FF40B
:1015E0008053C4F202034FF48052C4F202025169E4
:1015F0007A680A435A610DE04FF48053C4F2020343
:101600004FF48052C4F2020251697A686FEA020212
:101610000A405A6107F10C07BD4680BC704700BF05
:1016200080B483B000AF78600B46FB70FB78002B72
:101630000CD04FF48053C4F202034FF48052C4F232
:10164000020291697A680A439A610DE04FF480536F
:10165000C4F202034FF48052C4F2020291697A6824
:101660006FEA02020A409A6107F10C07BD4680BC8E
:10167000704700BF80B483B000AF78600B46FB704A
:10168000FB78002B0CD04FF48053C4F202034FF4CC
:101690008052C4F20202D1697A680A43DA610DE02D
:1016A0004FF48053C4F202034FF48052C4F202029A
:1016B000D1697A686FEA02020A40DA6107F10C0721
:1016C000BD4680BC704700BF80B483B000AF786077
:1016D0000B46FB70FB78002B0CD04FF48053C4F208
:1016E00002034FF48052C4F20202D1687A680A43BE
:1016F000DA600DE04FF48053C4F202034FF48052DD
:10170000C4F20202D1687A686FEA02020A40DA6023
:1017100007F10C07BD4680BC704700BF80B483B0A2
:1017200000AF78600B46FB70FB78002B0CD04FF4B9
:101730008053C4F202034FF48052C4F202021169D2
:101740007A680A431A610DE04FF48053C4F2020331
:101750004FF48052C4F2020211697A686FEA020201
:101760000A401A6107F10C07BD4680BC704700BFF4
:1017700080B483B000AF0346FB714FF48863C4F2BA
:101780004223FA791A6007F10C07BD4680BC704706
:1017900080B483B000AF0346FB714FF04C03C4F23A
:1017A0004223FA791A6007F10C07BD4680BC7047E6
:1017B00080B483B000AF0346FB7141F20703C4F26B
:1017C0000203FA791A7007F10C07BD4680BC704716
:1017D00080B487B000AF0346FB714FF00003FB609D
:1017E0004FF000037B614FF00003FB74FB794FEA7D
:1017F0005313DBB2FB60FB68012B06D14FF480531F
:10180000C4F202031B687B610FE0FB68022B06D168
:101810004FF48053C4F202031B6A7B6105E04FF46E
:101820008053C4F202035B6A7B61FB7903F01F0300
:10183000FB60FB687A6922FA03F303F00103DBB271
:10184000002B03D04FF00103FB7402E04FF00003C4
:10185000FB74FB7C184607F11C07BD4680BC704733
:1018600080B400AF4FF48053C4F202034FF48052AF
:10187000C4F20202526A42F080725A62BD4680BCD3
:10188000704700BF80B485B000AF0346FB714FF0D6
:101890000003FB734FF48053C4F202039A68FB7990
:1018A0001340002B03D04FF00103FB7302E04FF015
:1018B0000003FB73FB7B184607F11407BD4680BC91
:1018C000704700BF80B483B000AF0346FB7141F2A4
:1018D0000A03C4F20203FA791A7007F10C07BD4635
:1018E00080BC704780B582B000AF78607A684FF4F2
:1018F0000063C4F201039A420CD14FF004004FF090
:101900000101FFF7E1FE4FF004004FF00001FFF787
:10191000DBFE76E07A684FF44063C4F201039A423A
:101920000CD14FF008004FF00101FFF7CDFE4FF052
:1019300008004FF00001FFF7C7FE62E07A684FF43D
:101940008053C4F201039A420CD14FF010004FF0C3
:101950000101FFF7B9FE4FF010004FF00001FFF753
:10196000B3FE4EE07A684FF4A053C4F201039A42EA
:101970000CD14FF020004FF00101FFF7A5FE4FF012
:1019800020004FF00001FFF79FFE3AE07A684FF425
:10199000C053C4F201039A420CD14FF040004FF003
:1019A0000101FFF791FE4FF040004FF00001FFF7FB
:1019B0008BFE26E07A684FF4E053C4F201039A42AA
:1019C0000CD14FF080004FF00101FFF77DFE4FF08A
:1019D00080004FF00001FFF777FE12E07A684FF4C5
:1019E0000053C4F201039A420BD14FF480704FF0C0
:1019F0000101FFF769FE4FF480704FF00001FFF71F
:101A000063FE07F10807BD4680BD00BF80B500AF8B
:101A10004FF001004FF00101FFF756FE4FF00100BB
:101A20004FF00001FFF750FE80BD00BF80B489B0C9
:101A300000AF786039604FF00003FB614FF00003A6
:101A40003B614FF00003BB614FF00003FB604FF0C0
:101A500000037B614FF00003BB603B68DB7803F061
:101A60000F03FB613B68DB7803F01003002B04D00D
:101A70003B689B78FA691343FB613B681B88DBB2C8
:101A8000002B4ED07B681B687B614FF00003BB616D
:101A900041E0BB694FF0010202FA03F3FB603B68CF
:101AA0001B881A46FB6813403B613A69FB689A42FF
:101AB0002DD1BB694FEA8303FB60FB684FF00F0237
:101AC00002FA03F3BB60BB686FEA03037A69134051
:101AD0007B61FB68FA6902FA03F37A6913437B615D
:101AE0003B68DB78282B07D1BB694FF0010202FA73
:101AF00003F27B685A610AE03B68DB78482B06D129
:101B0000BB694FF0010202FA03F27B681A61BB69FC
:101B100003F10103BB61BB69072BBAD97B687A6902
:101B20001A603B681B88FF2B53D97B685B687B611D
:101B30004FF00003BB6146E0BB6903F108034FF0BF
:101B4000010202FA03F3FB603B681B881A46FB683C
:101B500013403B613A69FB689A4230D1BB694FEA56
:101B60008303FB60FB684FF00F0202FA03F3BB60D4
:101B7000BB686FEA03037A6913407B61FB68FA690B
:101B800002FA03F37A6913437B613B68DB78282B05
:101B900008D1BB6903F108034FF0010202FA03F216
:101BA0007B685A613B68DB78482B08D1BB6903F13D
:101BB00008034FF0010202FA03F27B681A61BB6965
:101BC00003F10103BB61BB69072BB5D97B687A6957
:101BD0005A6007F12407BD4680BC704780B483B0CB
:101BE00000AF78607B684FF6FF721A807B684FF019
:101BF00002029A707B684FF00402DA7007F10C075A
:101C0000BD4680BC704700BF80B485B000AF78602F
:101C10000B467B804FF00003FB737B689A687B88E0
:101C20001340002B03D04FF00103FB7302E04FF091
:101C30000003FB73FB7B184607F11407BD4680BC0D
:101C4000704700BF80B483B000AF78607B689B684A
:101C50009BB2184607F10C07BD4680BC704700BF19
:101C600080B485B000AF78600B467B804FF00003F6
:101C7000FB737B68DA687B881340002B03D04FF03E
:101C80000103FB7302E04FF00003FB73FB7B18467C
:101C900007F11407BD4680BC704700BF80B483B015
:101CA00000AF78607B68DB689BB2184607F10C07D1
:101CB000BD4680BC704700BF80B483B000AF786081
:101CC0000B467B807A887B681A6107F10C07BD465A
:101CD00080BC704780B483B000AF78600B467B80D7
:101CE0007A887B685A6107F10C07BD4680BC704753
:101CF00080B483B000AF786013460A467A807B7068
:101D00007B78002B03D07A887B681A6102E07A889E
:101D10007B685A6107F10C07BD4680BC704700BF65
:101D200080B483B000AF78600B467B807A887B6894
:101D3000DA6007F10C07BD4680BC704780B485B0FF
:101D400000AF78600B467B804FF48033FB607B886C
:101D5000FA681343FB607B68FA689A617A887B684B
:101D60009A617B68FA689A617B689B69FB607B6813
:101D70009B69FB6007F11407BD4680BC704700BF3C
:101D800080B485B000AF02460B46FA71BB714FF0CC
:101D90000003FB604FF00003C4F201031B68FB600B
:101DA000FA684FF680731340FB60FB794FEA031328
:101DB000FA681343FB60BB79FA681343FB604FF08A
:101DC0000003C4F20103FA681A6007F11407BD4664
:101DD00080BC704780B483B000AF0346FB714FF006
:101DE0001C03C4F22023FA791A6007F10C07BD46E0
:101DF00080BC704780B487B000AF78600B46FB7042
:101E00004FF000033B614FF00003FB604FF0000315
:101E10007B614FF00003BB607B68002B06DA4FF05C
:101E20000003C4F20103DB697B6105E04FF00003AE
:101E3000C4F201035B687B617B6803F470234FEAA3
:101E40001343BB607B684FEA03434FEA13433B6194
:101E50007B6803F44013B3F5401F10D17B6923F076
:101E600070637B614FF00003C4F201034FF0000286
:101E7000C4F20102526822F070625A6026E07B6868
:101E800003F48013002B10D0BB684FF0030202FA5A
:101E900003F3FB60FB686FEA03037A6913407B611D
:101EA0007B6943F070637B6110E07B684FEA5353BA
:101EB0004FEA03133A6902FA03F36FEA03037A69FC
:101EC00013407B617B6943F070637B61FB78002B7F
:101ED0000AD07B684FEA53534FEA03133A6902FA78
:101EE00003F37A6913437B617B68002B06DA4FF0BA
:101EF0000003C4F201037A69DA6105E04FF00003E0
:101F0000C4F201037A695A6007F11C07BD4680BC20
:101F1000704700BF90B484B000AF02460B46FA7120
:101F2000BB714FF00003FB60BB7903F003034FEA82
:101F300083034FF00F0202FA03F3FB604FF000033C
:101F4000C4F20103BA794FEA9202D2B210464FF0BE
:101F50000002C4F20102B9794FEA9101C9B201F15C
:101F6000020152F82110FA686FEA0202114000F1F2
:101F7000020243F822104FF00003C4F20103BA79C1
:101F80004FEA9202D2B210464FF00002C4F20102B0
:101F9000B9794FEA9101C9B201F1020152F8211059
:101FA000FC79BA7902F003024FEA820204FA02F2E3
:101FB000114300F1020243F8221007F11007BD4659
:101FC00090BC704780B483B000AF78604FF0DC0302
:101FD000C4F220237A681A6007F10C07BD4680BC62
:101FE000704700BF80B582B000AF78607A684FF468
:101FF0006053C4F201039A420CD14FF480404FF079
:102000000101FFF761FB4FF480404FF00001FFF743
:102010005BFB4EE07A684FF48843C4F200039A42B7
:102020000CD14FF400304FF00101FFF777FB4FF474
:1020300000304FF00001FFF771FB3AE07A684FF48F
:102040009043C4F200039A420CD14FF480204FF029
:102050000101FFF763FB4FF480204FF00001FFF711
:102060005DFB26E07A684FF49843C4F200039A427D
:102070000CD14FF400204FF00101FFF74FFB4FF45C
:1020800000204FF00001FFF749FB12E07A684FF49F
:10209000A043C4F200039A420BD14FF480104FF0DA
:1020A0000101FFF73BFB4FF480104FF00001FFF7F9
:1020B00035FB07F10807BD4680BD00BF80B58CB079
:1020C00000AF786039604FF00003FB624FF000030F
:1020D000BB624FF000037B624FF000033B624FF0A6
:1020E0000003FB617B68FB617B681B8A9BB2FB6220
:1020F000FA6A4CF6FF731340FB623B68DB88FA6AAE
:102100001343FB62FB6A9AB27B681A827B689B89E5
:102110009BB2FB62FA6A4EF6F3131340FB623B6814
:102120009A883B681B8913439AB23B685B891343C7
:102130009BB2FA6A1343FB62FB6A9AB27B689A818C
:102140007B689B8A9BB2FB62FA6A4FF6FF4313409F
:10215000FB623B689B89FA6A1343FB62FB6A9AB293
:102160007B689A8207F108031846FFF749F9FA6974
:102170004FF46053C4F201039A4202D17B69BB62FF
:1021800001E03B69BB627B689B899BB29BB21BB23F
:10219000002B0FDABA6A13464FEA83039B184FEA03
:1021A00083029A183B681B684FEA4303B2FBF3F3C0
:1021B0007B620EE0BA6A13464FEA83039B184FEA2C
:1021C00083029A183B681B684FEA8303B2FBF3F360
:1021D0007B627A6A48F21F53C5F2EB13A3FB02132A
:1021E0004FEA53134FEA0313FB62FB6A4FEA1313E0
:1021F0004FF0640202FB03F37A6AD31A3B627B68F6
:102200009B899BB29BB21BB2002B12DA3B6A4FEA4E
:10221000C30303F1320248F21F53C5F2EB13A3FBD1
:1022200002134FEA531303F00703FA6A1343FB62E6
:1022300011E03B6A4FEA031303F1320248F21F53E5
:10224000C5F2EB13A3FB02134FEA531303F00F0382
:10225000FA6A1343FB62FB6A9AB27B681A8107F140
:102260003007BD4680BD00BF80B483B000AF78604A
:102270007B684FF416521A607B684FF000029A8018
:102280007B684FF00002DA807B684FF000021A8111
:102290007B684FF00C025A817B684FF000029A81F4
:1022A00007F10C07BD4680BC704700BF80B485B005
:1022B00000AF786039604FF00003FB607B681B8AD9
:1022C0009BB2FB60FA684FF2FF031340FB603B6870
:1022D0001A883B685B8813439AB23B689B88134318
:1022E0009AB23B68DB8813439BB2FA681343FB60E6
:1022F000FB689AB27B681A8207F11407BD4680BC5E
:10230000704700BF80B483B000AF78607B684FF047
:1023100000021A807B684FF000025A807B684FF001
:1023200000029A807B684FF00002DA8007F10C0708
:10233000BD4680BC704700BF80B483B000AF7860FA
:102340000B46FB70FB78002B08D07B689B899BB207
:1023500043F400539AB27B689A8107E07B689B89BB
:102360009BB223F400539AB27B689A8107F10C0761
:10237000BD4680BC704700BF80B487B000AF7860B6
:1023800013460A467A807B704FF000033B614FF0A2
:102390000003FB604FF00003BB604FF000037B6164
:1023A0007B687B617B88DBB24FEA5313DBB23B6116
:1023B0007B8803F01F03FB60FB684FF0010202FA09
:1023C00003F3BB603B69012B04D17B6903F10C0370
:1023D0007B610BE03B69022B04D17B6903F11003A5
:1023E0007B6103E07B6903F114037B617B78002B45
:1023F00006D07B697A691168BA680A431A6007E0F7
:102400007B697A691168BA686FEA02020A401A6049
:1024100007F11C07BD4680BC704700BF80B483B085
:1024200000AF786013460A467A807B707B78002B79
:1024300008D07B689B8A9AB27B8813439AB27B68E8
:102440009A820AE07B689B8A9AB27B886FEA0303D0
:102450009BB213409AB27B689A8207F10C07BD4683
:1024600080BC704780B483B000AF78600B46FB70CF
:102470007B681B8A9BB223F00F039AB27B681A8297
:102480007B681B8A9AB2FB789BB213439AB27B6833
:102490001A8207F10C07BD4680BC704780B483B038
:1024A00000AF78600B467B807B689B899BB223F4EE
:1024B00000639AB27B689A817B689B899AB27B8819
:1024C00013439AB27B689A8107F10C07BD4680BC22
:1024D000704700BF80B483B000AF78600B46FB70DC
:1024E000FB78002B08D07B689B899BB243F00203EA
:1024F0009AB27B689A8107E07B689B899BB223F044
:1025000002039AB27B689A8107F10C07BD4680BC32
:10251000704700BF80B483B000AF78600B467B800B
:102520007B681B8A9BB223F020039AB27B681A82D5
:102530007B681B8A9AB27B8813439AB27B681A82A3
:1025400007F10C07BD4680BC704700BF80B483B064
:1025500000AF78600B46FB70FB78002B08D07B68DF
:102560001B8A9BB243F480439AB27B681A8207E0CD
:102570007B681B8A9BB223F480439AB27B681A82E1
:1025800007F10C07BD4680BC704700BF80B483B024
:1025900000AF78600B467B807B884FEAC3534FEADD
:1025A000D3539AB27B689A8007F10C07BD4680BC72
:1025B000704700BF80B483B000AF78607B689B88B1
:1025C0009BB24FEAC3534FEAD3539BB2184607F16D
:1025D0000C07BD4680BC704780B483B000AF786004
:1025E0007B689B899BB243F001039AB27B689A8116
:1025F00007F10C07BD4680BC704700BF80B483B0B4
:1026000000AF78600B46FB707B681B8B9BB2DBB224
:102610009AB27B681A837B681B8B9AB2FB789BB259
:102620004FEA03239BB213439AB27B681A8307F1E4
:102630000C07BD4680BC704780B483B000AF7860A3
:102640000B46FB707B681B8B9BB223F0FF039AB297
:102650007B681A837B681B8B9AB2FB789BB213430F
:102660009AB27B681A8307F10C07BD4680BC70479D
:1026700080B483B000AF78600B46FB70FB78002B12
:1026800008D07B689B8A9BB243F020039AB27B6898
:102690009A8207E07B689B8A9BB223F020039AB260
:1026A0007B689A8207F10C07BD4680BC704700BF6B
:1026B00080B483B000AF78600B46FB70FB78002BD2
:1026C00008D07B689B8A9BB243F010039AB27B6868
:1026D0009A8207E07B689B8A9BB223F010039AB230
:1026E0007B689A8207F10C07BD4680BC704700BF2B
:1026F00080B483B000AF78600B46FB70FB78002B92
:1027000008D07B689B8A9BB243F008039AB27B682F
:102710009A8207E07B689B8A9BB223F008039AB2F7
:102720007B689A8207F10C07BD4680BC704700BFEA
:1027300080B483B000AF78600B46FB70FB78002B51
:102740000AD07B689B899BB26FEA43436FEA53438D
:102750009AB27B689A8109E07B689B899BB24FEAB9
:1027600043434FEA53439AB27B689A8107F10C07BF
:10277000BD4680BC704700BF80B483B000AF7860B6
:102780000B46FB70FB78002B08D07B689B8A9BB2C2
:1027900043F400639AB27B689A8207E07B689B8A65
:1027A0009BB223F400639AB27B689A8207F10C070C
:1027B000BD4680BC704700BF80B483B000AF786076
:1027C0000B467B807B689B8A9BB223F004039AB202
:1027D0007B689A827B689B8A9AB27B8813439AB201
:1027E0007B689A8207F10C07BD4680BC704700BF2A
:1027F00080B483B000AF78600B46FB70FB78002B91
:1028000008D07B689B8A9BB243F002039AB27B6834
:102810009A8207E07B689B8A9BB223F002039AB2FC
:102820007B689A8207F10C07BD4680BC704700BFE9
:1028300080B485B000AF78600B467B804FF000031A
:10284000FB737B681B889AB27B8813409BB2002B7A
:1028500003D04FF00103FB7302E04FF00003FB7362
:10286000FB7B184607F11407BD4680BC704700BFCC
:1028700080B483B000AF78600B467B807B886FEAC2
:1028800003039AB27B681A8007F10C07BD4680BC2F
:10289000704700BF80B487B000AF78600B467B8084
:1028A0004FF00003FB604FF000037B614FF000032B
:1028B000BB604FF00003FB747B88DBB24FEA53131D
:1028C000DBB2BB607B8803F01F037B617B694FF049
:1028D000010202FA03F37B61BB68012B06D17B681E
:1028E0009B899BB27A6913407B610FE0BB68022B26
:1028F00006D17B681B8A9BB27A6913407B6105E035
:102900007B689B8A9BB27A6913407B617B884FEA24
:1029100013239BB2FB60FB684FF0010202FA03F342
:10292000FB607B681B889BB2FA681340FB607B6985
:10293000002B06D0FB68002B03D04FF00103FB7483
:1029400002E04FF00003FB74FB7C184607F11C0704
:10295000BD4680BC704700BF80B485B000AF7860D2
:102960000B467B804FF00003FB814FF00003BB81DF
:102970007B884FEA1323FB81FB894FF0010202FAA7
:1029800003F3BB81BB896FEA03039AB27B681A80A9
:1029900007F11407BD4680BC704700BF80B582B008
:1029A00000AF78607A684FF41053C4F201039A4282
:1029B0000CD14FF400704FF00101FEF785FE4FF48B
:1029C00000704FF00001FEF77FFE26E07A684FF4BA
:1029D0002053C4F201039A420CD14FF480604FF0AF
:1029E0000101FEF771FE4FF480604FF00001FEF729
:1029F0006BFE12E07A684FF47053C4F201039A42FE
:102A00000BD14FF400404FF00101FEF75DFE4FF493
:102A100000404FF00001FEF757FE07F10807BD46E2
:102A200080BD00BF80B485B000AF786039604FF0E2
:102A30000003FB604FF00003FB727B685B68FB6088
:102A4000FB6823F4702323F48073FB603B681A68EF
:102A50003B681B794FEA03231343FA681343FB6077
:102A60007B68FA685A607B689B68FB60FA684FF283
:102A7000FD73CFF6F1731340FB603B68DA683B6887
:102A80009B681A433B685B794FEA43031343FA6838
:102A90001343FB607B68FA689A607B68DB6AFB60C3
:102AA000FB6823F47003FB603B681B7C03F1FF337E
:102AB000DAB2FB7A1343FB72FB7A4FEA0353FA68EC
:102AC0001343FB607B68FA68DA6207F11407BD46BE
:102AD00080BC704780B483B000AF78607B684FF0F3
:102AE00000021A607B684FF000021A717B684FF099
:102AF00000025A717B684FF000029A607B684FF0C9
:102B00000002DA607B684FF001021A7407F10C07CB
:102B1000BD4680BC704700BF80B483B000AF786012
:102B20000B46FB70FB78002B06D07B689B6843F05C
:102B300001027B689A6005E07B689B6823F00102D4
:102B40007B689A6007F10C07BD4680BC704700BFE8
:102B500080B483B000AF78600B46FB70FB78002B2D
:102B600006D07B689B6843F480727B689A6005E0BE
:102B70007B689B6823F480727B689A6007F10C077E
:102B8000BD4680BC704700BF80B485B000AF7860A0
:102B900013460A467A807B704FF00003FB737B88F4
:102BA000FB737B78002B06D07B685A68FB7B1A434B
:102BB0007B685A6007E07B685A68FB7B6FEA030317
:102BC0001A407B685A6007F11407BD4680BC704705
:102BD00080B483B000AF78607B689B6843F00802E4
:102BE0007B689A6007F10C07BD4680BC704700BF48
:102BF00080B485B000AF78604FF00003FB737B6852
:102C00009B6803F00803002B03D04FF00103FB7314
:102C100002E04FF00003FB73FB7B184607F114073B
:102C2000BD4680BC704700BF80B483B000AF786001
:102C30007B689B6843F004027B689A6007F10C078D
:102C4000BD4680BC704700BF80B485B000AF7860DF
:102C50004FF00003FB737B689B6803F00403002BB9
:102C600003D04FF00103FB7302E04FF00003FB734E
:102C7000FB7B184607F11407BD4680BC704700BFB8
:102C800080B483B000AF78600B46FB70FB78002BFC
:102C900006D07B689B6843F4A0027B689A6005E0DD
:102CA0007B689B6823F4A0027B689A6007F10C079D
:102CB000BD4680BC704700BF80B485B000AF78606F
:102CC0004FF00003FB737B689B6803F48003002BC9
:102CD00003D04FF00103FB7302E04FF00003FB73DE
:102CE000FB7B184607F11407BD4680BC704700BF48
:102CF00080B485B000AF78600B46FB704FF00003E6
:102D0000FB604FF00003BB607B685B68FB60FB68A7
:102D100023F46043FB60FB7803F1FF33BB60BB68C7
:102D20004FEA4333FA681343FB607B68FA685A60E2
:102D300007F11407BD4680BC704700BF80B483B064
:102D400000AF78600B46FB70FB78002B06D07B68E9
:102D50005B6843F400627B685A6005E07B685B68EF
:102D600023F400627B685A6007F10C07BD4680BC03
:102D7000704700BF80B485B000AF7860F970BA705A
:102D80007B704FF00003FB604FF00003BB60FB78EB
:102D9000092B27D97B68DB68FB60FA7813464FEA7A
:102DA00043039B18A3F11E034FF0070202FA03F33B
:102DB000BB60BB686FEA0303FA681340FB60797875
:102DC000FA7813464FEA43039B18A3F11E0301FA56
:102DD00003F3BB60FA68BB681343FB607B68FA6867
:102DE000DA6022E07B681B69FB60FA7813464FEAE1
:102DF00043039B184FF0070202FA03F3BB60BB6862
:102E00006FEA0303FA681340FB607978FA78134697
:102E10004FEA43039B1801FA03F3BB60FA68BB68EF
:102E20001343FB607B68FA681A61BB78062B27D8CE
:102E30007B685B6BFB60BB7803F1FF3213464FEAA4
:102E400083039B184FF01F0202FA03F3BB60BB68B9
:102E50006FEA0303FA681340FB60F978BB7803F16B
:102E6000FF3213464FEA83039B1801FA03F3BB605A
:102E7000FA68BB681343FB607B68FA685A6351E0E9
:102E8000BB780C2B27D87B681B6BFB60BA7813468A
:102E90004FEA83039B18A3F123034FF01F0202FAAA
:102EA00003F3BB60BB686FEA0303FA681340FB607F
:102EB000F978BA7813464FEA83039B18A3F12303EA
:102EC00001FA03F3BB60FA68BB681343FB607B68DD
:102ED000FA681A6326E07B68DB6AFB60BA781346FF
:102EE0004FEA83039B18A3F141034FF01F0202FA3C
:102EF00003F3BB60BB686FEA0303FA681340FB602F
:102F0000F978BA7813464FEA83039B18A3F141037B
:102F100001FA03F3BB60FA68BB681343FB607B688C
:102F2000FA68DA6207F11407BD4680BC704700BF3B
:102F300080B483B000AF78600B46FB70FB78002B49
:102F400006D07B689B6843F480127B689A6005E03A
:102F50007B689B6823F480127B689A6007F10C07FA
:102F6000BD4680BC704700BF80B483B000AF7860BE
:102F70007B68DB6C9BB2184607F10C07BD4680BC32
:102F8000704700BF80B400AF42F24C43C4F201036B
:102F90001B681846BD4680BC704700BF80B483B034
:102FA00000AF78600B46FB70FB78002B06D07B6887
:102FB0005B6843F480627B685A6005E07B685B680D
:102FC00023F480627B685A6007F10C07BD4680BC21
:102FD000704700BF80B483B000AF78600B46FB70D1
:102FE000FB78002B06D07B685B6843F480527B68DB
:102FF0005A6005E07B685B6823F480527B685A6006
:1030000007F10C07BD4680BC704700BF80B485B097
:1030100000AF786039604FF00003FB607B689B680D
:10302000FB60FB6823F4E043FB60FA683B681343F2
:10303000FB607B68FA689A6007F11407BD4680BCA4
:10304000704700BF80B483B000AF78600B46FB7060
:10305000FB78002B06D07B689B6843F400427B68BA
:103060009A6005E07B689B6823F400427B689A6065
:1030700007F10C07BD4680BC704700BF80B483B029
:1030800000AF78600B46FB70FB78002B06D07B68A6
:103090009B6843F402127B689A6005E07B689B683A
:1030A00023F402127B689A6007F10C07BD4680BCCE
:1030B000704700BF80B485B000AF78604FF0000368
:1030C000FB737B689B6803F40013002B03D04FF065
:1030D0000103FB7302E04FF00003FB73FB7B184618
:1030E00007F11407BD4680BC704700BF80B487B0AD
:1030F00000AF7860F970BA707B704FF000037B61AD
:103100004FF000033B614FF00003FB60FB78092B9D
:1031100027D97B68DB687B61FA7813464FEA430363
:103120009B18A3F11E034FF0070202FA03F33B6161
:103130003B696FEA03037A6913407B617978FA7817
:1031400013464FEA43039B18A3F11E0301FA03F34E
:103150003B617A693B6913437B617B687A69DA601A
:1031600022E07B681B697B61FA7813464FEA4303D0
:103170009B184FF0070202FA03F33B613B696FEAC9
:1031800003037A6913407B617978FA7813464FEA32
:1031900043039B1801FA03F33B617A693B691343CC
:1031A0007B617B687A691A617B689B6B7B617B6959
:1031B00003F440134FEA1353FB60FB68DBB26FEA82
:1031C0000303DAB2BB78D318DBB203F10303DBB23B
:1031D0001A4613464FEA83039B184FF01F0202FA68
:1031E00003F33B613B696FEA03037A6913407B6138
:1031F000F978FB68DBB26FEA0303DAB2BB78D31865
:10320000DBB203F10303DBB21A4613464FEA830332
:103210009B1801FA03F33B617A693B6913437B61B5
:103220007B687A699A6307F11C07BD4680BC7047CA
:1032300080B485B000AF78600B46FB704FF00003A0
:10324000FB604FF00003BB607B689B6BFB60FB681F
:1032500023F44013FB60FB7803F1FF33BB60BB68D2
:103260004FEA0353FA681343FB607B68FA689A637A
:1032700007F11407BD4680BC704700BF80B485B01D
:1032800000AF786013460A46FA703B804FF00003A7
:10329000FB607B68FB60FA78FB68D318FB60FB6817
:1032A0003A881A6007F11407BD4680BC704700BF1A
:1032B00080B485B000AF78600B46FB704FF0000320
:1032C000FB607B68FB60FA78FB68D31803F1280386
:1032D000FB60FB681B689BB2184607F11407BD46EC
:1032E00080BC704780B485B000AF786039604FF023
:1032F0000003FB607B685B68FB60FB6823F44003B2
:1033000023F40073FB60FA683B681343FB607B683F
:10331000FA685A6007F11407BD4680BC704700BFC9
:1033200080B483B000AF786013460A467A803B8051
:103330007A887B685A623A887B689A6207F10C0740
:10334000BD4680BC704700BF80B485B000AF7860D8
:103350000B46FB704FF00003FB607B685B68FB6013
:10336000FB6823F01F03FB60FB78FA681343FB60E4
:103370007B68FA685A6007F11407BD4680BC704745
:1033800080B483B000AF0346FB71FB79002B0CD0F7
:103390004FF41053C4F201034FF41052C4F201026F
:1033A000926842F400029A600BE04FF41053C4F2AA
:1033B00001034FF41052C4F20102926822F4000299
:1033C0009A6007F10C07BD4680BC704780B485B099
:1033D00000AF78600B46FB704FF00003FB737B6817
:1033E0001A68FB781340002B03D04FF00103FB73E6
:1033F00002E04FF00003FB73FB7B184607F1140754
:10340000BD4680BC704700BF80B483B000AF786019
:103410000B46FB70FB786FEA03027B681A6007F1CA
:103420000C07BD4680BC704780B487B000AF7860A1
:103430000B467B804FF00003FB754FF000033B61B0
:103440004FF00003FB607B884FEA13239BB23B6184
:103450007B685A687B88DBB21340FB607B681A6824
:103460003B691340002B06D0FB68002B03D04FF0C4
:103470000103FB7502E04FF00003FB75FB7D18466E
:1034800007F11C07BD4680BC704700BF80B485B003
:1034900000AF78600B467B804FF00003FB737B88A6
:1034A0004FEA13239BB2FB73FB7B6FEA03027B683B
:1034B0001A6007F11407BD4680BC704780B582B022
:1034C00000AF78607A684FF43053C4F201039A4237
:1034D0000CD14FF400604FF00101FEF7F5F84FF406
:1034E00000604FF00001FEF7EFF83BE17B68B3F1BD
:1034F000804F0CD14FF001004FF00101FEF70EF9A3
:103500004FF001004FF00001FEF708F92AE17A6858
:103510004FF48063C4F200039A420CD14FF00200D2
:103520004FF00101FEF7FAF84FF002004FF00001F2
:10353000FEF7F4F816E17A684FF40063C4F2000372
:103540009A420CD14FF004004FF00101FEF7E6F86B
:103550004FF004004FF00001FEF7E0F802E17A6856
:103560004FF44063C4F200039A420CD14FF00800BC
:103570004FF00101FEF7D2F84FF008004FF00001C4
:10358000FEF7CCF8EEE07A684FF48053C4F2000303
:103590009A420CD14FF010004FF00101FEF7BEF837
:1035A0004FF010004FF00001FEF7B8F8DAE07A684B
:1035B0004FF4A053C4F200039A420CD14FF0200004
:1035C0004FF00101FEF7AAF84FF020004FF0000184
:1035D000FEF7A4F8C6E07A684FF45053C4F2010332
:1035E0009A420CD14FF400504FF00101FEF76CF8F5
:1035F0004FF400504FF00001FEF766F8B2E07A6831
:103600004FF49843C4F201039A420CD14FF40020C6
:103610004FF00101FEF758F84FF400204FF0000181
:10362000FEF752F89EE07A684FF4A043C4F201031B
:103630009A420CD14FF480104FF00101FEF744F88C
:103640004FF480104FF00001FEF73EF88AE07A68F0
:103650004FF4A843C4F201039A420CD14FF4001076
:103660004FF00101FEF730F84FF400104FF0000169
:10367000FEF72AF876E07A684FF4C053C4F20003EC
:103680009A420CD14FF040004FF00101FEF746F88E
:103690004FF040004FF00001FEF740F862E07A681A
:1036A0004FF4E053C4F200039A420CD14FF0800073
:1036B0004FF00101FEF732F84FF080004FF00001AB
:1036C000FEF72CF84EE07A684FF40053C4F2000382
:1036D0009A420CD14FF480704FF00101FEF71EF8B2
:1036E0004FF480704FF00001FEF718F83AE07A6866
:1036F0004FF48043C4F201039A420CD14FF480305E
:103700004FF00101FDF7E0FF4FF480304FF0000172
:10371000FDF7DAFF26E07A684FF48843C4F201032C
:103720009A420CD14FF400304FF00101FDF7CCFF6D
:103730004FF400304FF00001FDF7C6FF12E07A6849
:103740004FF49043C4F201039A420BD14FF480200E
:103750004FF00101FDF7B8FF4FF480204FF000015A
:10376000FDF7B2FF07F10807BD4680BD80B485B004
:1037700000AF786039604FF00003FB817B681B88E5
:10378000FB817A684FF43053C4F201039A421FD090
:103790007A684FF45053C4F201039A4218D07B6800
:1037A000B3F1804F14D07A684FF48063C4F2000301
:1037B0009A420DD07A684FF40063C4F200039A4233
:1037C00006D07A684FF44063C4F200039A4208D1ED
:1037D000FB8923F07003FB813B685A88FB89134304
:1037E000FB817A684FF48053C4F200039A420FD0F1
:1037F0007A684FF4A053C4F200039A4208D0FB89C0
:1038000023F44073FB813B68DA88FB891343FB8117
:103810007B68FA891A803B689A887B689A853B683E
:103820001A887B681A857A684FF43053C4F2010312
:103830009A421BD07A684FF45053C4F201039A4263
:1038400014D07A684FF48043C4F201039A420DD039
:103850007A684FF48843C4F201039A4206D07A682A
:103860004FF49043C4F201039A4204D13B681B7A9F
:103870001A467B681A867B684FF001029A8207F12C
:103880001407BD4680BC704780B485B000AF786037
:1038900039604FF000037B814FF00003FB814FF054
:1038A0000003BB817B681B8C9BB223F001039AB29F
:1038B0007B681A847B681B8CFB817B689B88BB813F
:1038C0007B681B8B7B817B8923F070037B817B89E9
:1038D00023F003037B813B681A887B8913437B8138
:1038E000FB8923F00203FB813B681A89FB891343A0
:1038F000FB813B685A88FB891343FB817A684FF44C
:103900003053C4F201039A421BD07A684FF45053EB
:10391000C4F201039A4214D07A684FF48043C4F28F
:1039200001039A420DD07A684FF48843C4F2010330
:103930009A4206D07A684FF49043C4F201039A4247
:1039400023D1FB8923F00803FB813B685A89FB895B
:103950001343FB81FB8923F00403FB813B689A88B6
:10396000FB891343FB81BB8923F48073BB81BB8933
:1039700023F40073BB813B689A89BB891343BB81E5
:103980003B68DA89BB891343BB817B68BA899A801B
:103990007B687A891A833B68DA887B689A867B68B9
:1039A000FA891A8407F11407BD4680BC704700BF2E
:1039B00080B485B000AF786039604FF000037B8140
:1039C0004FF00003FB814FF00003BB817B681B8C31
:1039D0009BB223F010039AB27B681A847B681B8C1D
:1039E000FB817B689B88BB817B681B8B7B817B8990
:1039F00023F4E0437B817B8923F440737B813B6824
:103A00001B884FEA03239AB27B8913437B81FB898E
:103A100023F02003FB813B681B894FEA03139AB212
:103A2000FB891343FB813B685B884FEA03139AB21F
:103A3000FB891343FB817A684FF43053C4F20103CE
:103A40009A4206D07A684FF45053C4F201039A4266
:103A50002FD1FB8923F08003FB813B685B894FEA10
:103A600003139AB2FB891343FB81FB8923F04003C4
:103A7000FB813B689B884FEA03139AB2FB8913438F
:103A8000FB81BB8923F48063BB81BB8923F4006382
:103A9000BB813B689B894FEA83039AB2BB8913437E
:103AA000BB813B68DB894FEA83039AB2BB8913432E
:103AB000BB817B68BA899A807B687A891A833B6864
:103AC000DA887B681A877B68FA891A8407F11407F9
:103AD000BD4680BC704700BF80B485B000AF786041
:103AE00039604FF000037B814FF00003FB814FF002
:103AF0000003BB817B681B8C9BB223F480739AB25A
:103B00007B681A847B681B8CFB817B689B88BB81EC
:103B10007B689B8B7B817B8923F070037B817B8916
:103B200023F003037B813B681A887B8913437B81E5
:103B3000FB8923F40073FB813B681B894FEA032355
:103B40009AB2FB891343FB813B685B884FEA0323EE
:103B50009AB2FB891343FB817A684FF43053C4F265
:103B600001039A4206D07A684FF45053C4F201031D
:103B70009A422FD1FB8923F40063FB813B685B8968
:103B80004FEA03239AB2FB891343FB81FB8923F499
:103B90008063FB813B689B884FEA03239AB2FB89D1
:103BA0001343FB81BB8923F48053BB81BB8923F47E
:103BB0000053BB813B689B894FEA03139AB2BB89D0
:103BC0001343BB813B68DB894FEA03139AB2BB897D
:103BD0001343BB817B68BA899A807B687A899A8310
:103BE0003B68DA887B689A877B68FA891A8407F1D0
:103BF0001407BD4680BC704780B485B000AF7860C4
:103C000039604FF00003BB814FF000037B814FF020
:103C10000003FB817B681B8C9BB223F480539AB218
:103C20007B681A847B681B8C7B817B689B88FB810B
:103C30007B689B8BBB81BB8923F4E043BB81BB8941
:103C400023F44073BB813B681B884FEA03239AB27D
:103C5000BB891343BB817B8923F400537B813B6881
:103C60001B894FEA03339AB27B8913437B813B68FC
:103C70005B884FEA03339AB27B8913437B817A686E
:103C80004FF43053C4F201039A4206D07A684FF4DD
:103C90005053C4F201039A420BD1FB8923F48043B1
:103CA000FB813B689B894FEA83139AB2FB891343DC
:103CB000FB817B68FA899A807B68BA899A833B6822
:103CC000DA887B68A3F840207B687A891A8407F138
:103CD0001407BD4680BC704780B582B000AF7860E5
:103CE00039603B681B88002B0FD13B6859883B68C3
:103CF0009A883B681B89786801F0D4F93B68DB88B7
:103D00007868194601F076F836E03B681B88042B8A
:103D10000FD13B6859883B689A883B681B89786853
:103D200001F032FA3B68DB887868194601F07EF8CA
:103D300022E03B681B88082B0FD13B6859883B6801
:103D40009A883B681B89786801F0A0FA3B68DB8899
:103D50007868194601F088F80EE03B6859883B689E
:103D60009A883B681B89786801F00AFB3B68DB880E
:103D70007868194601F094F807F10807BD4680BD40
:103D800080B584B000AF786039604FF00003FB81EC
:103D90004FF00103BB813B685B88002B03D14FF0E0
:103DA0000203FB8102E04FF00003FB813B689B882C
:103DB000012B03D14FF00203BB8102E04FF001035E
:103DC000BB813B681B88002B1CD13B6859883B6832
:103DD0009A883B681B89786801F064F93B68DB8846
:103DE0007868194601F006F83B681B89F989BA8999
:103DF000786801F0C9F93B68DB887868194601F0FA
:103E000015F81BE03B6859883B689A883B681B891A
:103E1000786801F0B9F93B68DB887868194601F0E9
:103E200005F83B681B89F989BA89786801F03AF985
:103E30003B68DB887868194600F0DCFF07F1100763
:103E4000BD4680BD80B483B000AF786039603B6808
:103E50001A883B685B8813439AB23B689B8813437C
:103E60009AB23B68DB8813439AB23B681B891343C1
:103E70009AB23B685B8913439AB23B689B891343B0
:103E80009AB27B68A3F8442007F10C07BD4680BCBA
:103E9000704700BF80B483B000AF78607B684FF696
:103EA000FF729A807B684FF000021A807B684FF0A7
:103EB0000002DA807B684FF000025A807B684FF086
:103EC00000021A7207F10C07BD4680BC704700BFA4
:103ED00080B483B000AF78607B684FF000021A8036
:103EE0007B684FF000025A807B684FF000029A8096
:103EF0007B684FF00002DA807B684FF000021A8185
:103F00007B684FF000025A817B684FF000029A8173
:103F10007B684FF00002DA8107F10C07BD4680BCD8
:103F2000704700BF80B483B000AF78607B684FF00B
:103F300000021A807B684FF000025A807B684FF0C5
:103F400001029A807B684FF00002DA807B684FF0B4
:103F500000021A8107F10C07BD4680BC704700BF04
:103F600080B483B000AF78607B684FF000021A80A5
:103F70007B684FF000025A807B684FF000029A8005
:103F80007B684FF00002DA807B684FF000021A81F4
:103F90007B684FF000025A817B684FF000029A81E3
:103FA00007F10C07BD4680BC704700BF80B483B0EA
:103FB00000AF78600B46FB70FB78002B08D07B6865
:103FC0001B889BB243F001039AB27B681A8007E01A
:103FD0007B681B889BB223F001039AB27B681A802E
:103FE00007F10C07BD4680BC704700BF80B483B0AA
:103FF00000AF78600B46FB70FB78002B0CD07B6821
:10400000B3F844309BB26FEA43436FEA53439AB22A
:104010007B68A3F844200BE07B68B3F844309BB284
:104020004FEA43434FEA53439AB27B68A3F84420D4
:1040300007F10C07BD4680BC704700BF80B483B059
:1040400000AF786013460A467A807B707B78002B3D
:1040500008D07B689B899AB27B8813439AB27B68AD
:104060009A810AE07B689B899AB27B886FEA030396
:104070009BB213409AB27B689A8107F10C07BD4648
:1040800080BC704780B483B000AF78600B467B8003
:104090007B687A889A8207F10C07BD4680BC70471E
:1040A00080B483B000AF786013460A467A803B80C4
:1040B0007A883B8813439AB27B68A3F8482007F1BB
:1040C0000C07BD4680BC704780B483B000AF7860F9
:1040D00013460A467A807B707B78002B08D07B6879
:1040E0009B899AB27B8813439AB27B689A810AE0D3
:1040F0007B689B899AB27B886FEA03039BB213406B
:104100009AB27B689A8107F10C07BD4680BC704764
:1041100080B483B000AF78607B681B899BB223F0CA
:1041200007039AB27B681A8107F10C07BD4680BC71
:10413000704700BF80B582B000AF78600B467B80CF
:104140007B887868194600F0D3F87B681B899BB29E
:1041500043F007039AB27B681A8107F10807BD464E
:1041600080BD00BF80B584B000AFF86079813A812E
:10417000FB807B89602B08D13A89FB88F86811465F
:104180004FF0010201F000F807E03A89FB88F86877
:1041900011464FF0010200F085FF7B89F86819464F
:1041A00000F0A6F8FB681B899BB243F007039AB2A4
:1041B000FB681A8107F11007BD4680BD80B586B047
:1041C00000AFF86079813A81FB804FF00003FB82F9
:1041D00079893A89FB88F86800F034F8FB681B8914
:1041E000FB82FB8A23F00703FB82FB8A43F0070371
:1041F000FB82FB8A23F07003FB82FB8A43F070038F
:10420000FB82FB68FA8A1A8107F11807BD4680BD58
:1042100080B584B000AFF86079813A81FB807989FC
:104220003A89FB88F86800F00DF8FB681B899BB29F
:1042300043F480439AB2FB681A8107F11007BD4628
:1042400080BD00BF80B487B000AFF86079813A814B
:10425000FB804FF00003FB82FB681B89FB82FB8A1B
:10426000DBB2FB82FB884FEA03239AB23B891343FC
:104270009AB27B8913439AB2FB8A1343FB82FB6891
:10428000FA8A1A8107F11C07BD4680BC704700BF3F
:1042900080B483B000AF786013460A467A803B80D2
:1042A0007B687A881A857B683A889A8207F10C07BE
:1042B000BD4680BC704700BF80B485B000AF786059
:1042C0000B467B804FF00003FB817B681B88FB81E2
:1042D000FB8923F07003FB81FA897B881343FB8100
:1042E0007B68FA891A8007F11407BD4680BC7047C5
:1042F00080B485B000AF78600B467B804FF0000340
:10430000FB817B681B89FB81FB8923F07003FB81A8
:10431000FA897B881343FB817B68FA891A8107F14C
:104320001407BD4680BC704780B487B000AFF8600A
:1043300079813A81FB804FF00003FB824FF000034C
:10434000BB824FF000037B82FB681B89FB82FB680A
:104350001B8BBB82FB681B8C7B82FB8A23F00703D1
:10436000FB82FA8A7B891343FB82BB8A23F4407366
:1043700023F00303BB82BB8A43F4807343F0010341
:10438000BB827B8A23F022037B82FB884FEA0313E4
:104390009AB23B8913439AB27B8A13437B82FB68B0
:1043A000FA8A1A81FB68BA8A1A83FB687A8A1A84A5
:1043B00007F11C07BD4680BC704700BF80B485B0C4
:1043C00000AF78600B467B804FF00003FB817B6879
:1043D0001B8BFB81FB8923F07003FB81FA897B88AF
:1043E0001343FB817B68FA891A8307F11407BD46E2
:1043F00080BC704780B485B000AF78600B467B808E
:104400004FF00003FB817B681B8BFB81FB8923F44E
:10441000E043FB817B884FEA03239AB2FB89134375
:10442000FB817B68FA891A8307F11407BD4680BCBB
:10443000704700BF80B485B000AF78600B467B80CA
:104440004FF00003FB817B689B8BFB81FB8923F092
:104450007003FB81FA897B881343FB817B68FA89AF
:104460009A8307F11407BD4680BC704780B485B0BD
:1044700000AF78600B467B804FF00003FB817B68C8
:104480009B8BFB81FB8923F4E043FB817B884FEA14
:1044900003239AB2FB891343FB817B68FA899A83D1
:1044A00007F11407BD4680BC704700BF80B483B0DD
:1044B00000AF78600B46FB70FB78002B08D07B6860
:1044C0001B889BB243F080039AB27B681A8007E096
:1044D0007B681B889BB223F080039AB27B681A80AA
:1044E00007F10C07BD4680BC704700BF80B483B0A5
:1044F00000AF78600B46FB70FB78002B08D07B6820
:104500009B889BB243F004039AB27B689A8007E0D1
:104510007B689B889BB223F004039AB27B689A80E5
:1045200007F10C07BD4680BC704700BF80B483B064
:1045300000AF78600B46FB70FB78002B08D07B68DF
:104540009B889BB243F008039AB27B689A8007E08D
:104550007B689B889BB223F008039AB27B689A80A1
:1045600007F10C07BD4680BC704700BF80B483B024
:1045700000AF78600B46FB70FB78002B08D07B689F
:104580009B889BB243F001039AB27B689A8007E054
:104590007B689B889BB223F001039AB27B689A8068
:1045A00007F10C07BD4680BC704700BF80B485B0E2
:1045B00000AF78600B467B804FF00003FB817B6887
:1045C0001B8BFB81FB8923F00803FB81FA897B8825
:1045D0001343FB817B68FA891A8307F11407BD46F0
:1045E00080BC704780B485B000AF78600B467B809C
:1045F0004FF00003FB817B681B8BFB81FB8923F45D
:104600000063FB817B884FEA03239AB2FB89134343
:10461000FB817B68FA891A8307F11407BD4680BCC9
:10462000704700BF80B485B000AF78600B467B80D8
:104630004FF00003FB817B689B8BFB81FB8923F0A0
:104640000803FB81FA897B881343FB817B68FA8925
:104650009A8307F11407BD4680BC704780B485B0CB
:1046600000AF78600B467B804FF00003FB817B68D6
:104670009B8BFB81FB8923F40063FB817B884FEAE2
:1046800003239AB2FB891343FB817B68FA899A83DF
:1046900007F11407BD4680BC704700BF80B485B0E9
:1046A00000AF78600B467B804FF00003FB817B6896
:1046B0001B8BFB81FB8923F00403FB81FA897B8838
:1046C0001343FB817B68FA891A8307F11407BD46FF
:1046D00080BC704780B485B000AF78600B467B80AB
:1046E0004FF00003FB817B681B8BFB81FB8923F46C
:1046F0008063FB817B884FEA03239AB2FB891343D3
:10470000FB817B68FA891A8307F11407BD4680BCD8
:10471000704700BF80B485B000AF78600B467B80E7
:104720004FF00003FB817B689B8BFB81FB8923F0AF
:104730000403FB81FA897B881343FB817B68FA8938
:104740009A8307F11407BD4680BC704780B485B0DA
:1047500000AF78600B467B804FF00003FB817B68E5
:104760009B8BFB81FB8923F48063FB817B884FEA71
:1047700003239AB2FB891343FB817B68FA899A83EE
:1047800007F11407BD4680BC704700BF80B485B0F8
:1047900000AF78600B467B804FF00003FB817B68A5
:1047A0001B8BFB81FB8923F08003FB81FA897B88CB
:1047B0001343FB817B68FA891A8307F11407BD460E
:1047C00080BC704780B485B000AF78600B467B80BA
:1047D0004FF00003FB817B681B8BFB81FB894FEA59
:1047E00043434FEA5343FB817B884FEA03239AB24A
:1047F000FB891343FB817B68FA891A8307F114074D
:10480000BD4680BC704700BF80B485B000AF786003
:104810000B467B804FF00003FB817B689B8BFB8109
:10482000FB8923F08003FB81FA897B881343FB819A
:104830007B68FA899A8307F11407BD4680BC7047EC
:1048400080B485B000AF78600B467B804FF00003EA
:10485000FB817B689B8BFB81FB894FEA43434FEADB
:104860005343FB817B884FEA03239AB2FB891343AE
:10487000FB817B68FA899A8307F11407BD4680BCE7
:10488000704700BF80B485B000AF78600B467B8076
:104890004FF00003FB817B681B8CFB81FB8923F0BD
:1048A0000203FB81FA897B881343FB817B68FA89C9
:1048B0001A8407F11407BD4680BC704780B485B0E8
:1048C00000AF78600B467B804FF00003FB817B6874
:1048D0001B8CFB81FB8923F00803FB81FA897B8811
:1048E0001343FB817B68FA891A8407F11407BD46DC
:1048F00080BC704780B485B000AF78600B467B8089
:104900004FF00003FB817B681B8CFB81FB8923F04C
:104910002003FB817B884FEA03139AB2FB89134380
:10492000FB817B68FA891A8407F11407BD4680BCB5
:10493000704700BF80B485B000AF78600B467B80C5
:104940004FF00003FB817B681B8CFB81FB8923F00C
:104950008003FB817B884FEA03139AB2FB891343E0
:10496000FB817B68FA891A8407F11407BD4680BC75
:10497000704700BF80B485B000AF78600B467B8085
:104980004FF00003FB817B681B8CFB81FB8923F4C8
:104990000073FB817B884FEA03239AB2FB891343A0
:1049A000FB817B68FA891A8407F11407BD4680BC35
:1049B000704700BF80B485B000AF78600B467B8045
:1049C0004FF00003FB817B681B8CFB81FB8923F488
:1049D0000063FB817B884FEA03239AB2FB89134370
:1049E000FB817B68FA891A8407F11407BD4680BCF5
:1049F000704700BF80B485B000AF78600B467B8005
:104A00004FF00003FB817B681B8CFB81FB8923F447
:104A10000053FB817B884FEA03339AB2FB8913432F
:104A2000FB817B68FA891A8407F11407BD4680BCB4
:104A3000704700BF80B485B000AF786013460A4667
:104A40007A803B804FF00003FB817B884FF00102AE
:104A500002FA03F3FB817B681B8C9AB2FB896FEA35
:104A600003039BB213409AB27B681A847B681B8C49
:104A70009AB239887B8801FA03F39BB213439AB246
:104A80007B681A8407F11407BD4680BC704700BFDD
:104A900080B485B000AF786013460A467A803B80C8
:104AA0004FF00003FB817B884FF0040202FA03F30E
:104AB000FB817B681B8C9AB2FB896FEA03039BB274
:104AC00013409AB27B681A847B681B8C9AB239882F
:104AD0007B8801FA03F39BB213439AB27B681A8472
:104AE00007F11407BD4680BC704700BF80B485B095
:104AF00000AF786013460A467A803B804FF000038F
:104B0000FB604FF000037B817B68FB60FB6803F177
:104B10001803FB607B884FF0010202FA03F37B81EC
:104B20007B681B8C9AB27B896FEA03039BB21340AC
:104B30009AB27B681A847B88002B02D07B88082B72
:104B400013D17B884FEA53039BB2FA68D318FB60FA
:104B5000FB68FA68126822F070021A60FB68FA6853
:104B600011683A880A431A6018E07B88A3F10403AD
:104B70009BB24FEA53039BB2FA68D318FB60FB6801
:104B8000FA68126822F4E0421A60FB68FA68116859
:104B90003A884FEA022292B20A431A6007F11407D8
:104BA000BD4680BC704700BF80B483B000AF786062
:104BB0000B46FB70FB78002B08D07B681B889BB2F0
:104BC00043F002039AB27B681A8007E07B681B8877
:104BD0009BB223F002039AB27B681A8007F10C079C
:104BE000BD4680BC704700BF80B483B000AF786022
:104BF0000B467B807B88002B08D07B681B889BB290
:104C000043F004039AB27B681A8007E07B681B8834
:104C10009BB223F004039AB27B681A8007F10C0759
:104C2000BD4680BC704700BF80B483B000AF7860E1
:104C30000B46FB70FB78002B08D07B689B889BB2EF
:104C400043F080039AB27B689A8007E07B689B8878
:104C50009BB223F080039AB27B689A8007F10C071D
:104C6000BD4680BC704700BF80B483B000AF7860A1
:104C70000B467B807B681B889BB223F008039AB2AB
:104C80007B681A807B681B889AB27B8813439AB230
:104C90007B681A8007F10C07BD4680BC704700BFD7
:104CA00080B483B000AF78600B467B807B689B88C4
:104CB0009BB223F070039AB27B689A807B689B88D2
:104CC0009AB27B8813439AB27B689A8007F10C07EB
:104CD000BD4680BC704700BF80B483B000AF786031
:104CE0000B467B807B681B899BB223F007039AB23B
:104CF0007B681A817B681B899AB27B8813439AB2BE
:104D00007B681A8107F10C07BD4680BC704700BF65
:104D100080B483B000AF78600B467B807B681B89D2
:104D20009BB223F080039AB27B681A817B681B894F
:104D30009AB27B8813439AB27B681A8107F10C07F9
:104D4000BD4680BC704700BF80B483B000AF7860C0
:104D50000B467B807B687A889A8407F10C07BD46F6
:104D600080BC704780B483B000AF78600B467B8016
:104D70007B687A889A8507F10C07BD4680BC70472E
:104D800080B483B000AF78600B467B807B687A8804
:104D90009A8607F10C07BD4680BC704780B483B08B
:104DA00000AF78600B467B807B687A881A8707F1B2
:104DB0000C07BD4680BC704780B483B000AF7860FC
:104DC0000B467B807B687A889A8707F10C07BD4683
:104DD00080BC704780B483B000AF78600B467B80A6
:104DE0007B687A88A3F8402007F10C07BD4680BC99
:104DF000704700BF80B483B000AF78600B467B8003
:104E00007B681B8B9BB223F00C039AB27B681A83DE
:104E10007B681B8B9AB27B8813439AB27B681A8398
:104E200007F10C07BD4680BC704700BF80B483B05B
:104E300000AF78600B467B807B681B8B9BB223F4B2
:104E400040639AB27B681A837B681B8B9AB27B881B
:104E50004FEA03239BB213439AB27B681A8307F18C
:104E60000C07BD4680BC704780B483B000AF78604B
:104E70000B467B807B689B8B9BB223F00C039AB222
:104E80007B689A837B689B8B9AB27B8813439AB228
:104E90007B689A8307F10C07BD4680BC704700BF52
:104EA00080B483B000AF78600B467B807B689B8BBF
:104EB0009BB223F440639AB27B689A837B689B8B96
:104EC0009AB27B884FEA03239BB213439AB27B6862
:104ED0009A8307F10C07BD4680BC704780B483B04D
:104EE00000AF78600B467B807B681B889BB223F405
:104EF00040739AB27B681A807B681B889AB27B8861
:104F000013439AB27B681A8007F10C07BD4680BC38
:104F1000704700BF80B483B000AF78607B689B8E21
:104F20009BB2184607F10C07BD4680BC704700BF16
:104F300080B483B000AF78607B681B8F9BB218464B
:104F400007F10C07BD4680BC704700BF80B483B03A
:104F500000AF78607B689B8F9BB2184607F10C0707
:104F6000BD4680BC704700BF80B483B000AF78609E
:104F70007B68B3F840309BB2184607F10C07BD467A
:104F800080BC704780B483B000AF78607B689B8C36
:104F90009BB2184607F10C07BD4680BC704700BFA6
:104FA00080B483B000AF78607B681B8D9BB21846DD
:104FB00007F10C07BD4680BC704700BF80B485B0C8
:104FC00000AF78600B467B804FF00003FB737B687B
:104FD0001B8A9AB27B8813409BB2002B03D04FF000
:104FE0000103FB7302E04FF00003FB73FB7B1846E9
:104FF00007F11407BD4680BC704700BF80B483B082
:1050000000AF78600B467B807B886FEA03039AB21F
:105010007B681A8207F10C07BD4680BC704700BF51
:1050200080B485B000AF78600B467B804FF0000302
:10503000FB734FF00003BB814FF000037B817B6863
:105040001B8A9AB27B881340BB817B689B899AB28A
:105050007B8813407B81BB89002B06D07B89002B8A
:1050600003D04FF00103FB7302E04FF00003FB732A
:10507000FB7B184607F11407BD4680BC704700BF94
:1050800080B483B000AF78600B467B807B886FEA8A
:1050900003039AB27B681A8207F10C07BD4680BCF5
:1050A000704700BF80B487B000AFF86079813A8163
:1050B000FB804FF00003BB824FF00003FB82FB68D4
:1050C0001B8C9BB223F001039AB2FB681A84FB6825
:1050D0001B8BBB82FB681B8CFB82BB8A23F0F30318
:1050E000BB82FB884FEA03139AB23B8913439AB2FF
:1050F000BB8A1343BB82FA684FF43053C4F20103F6
:105100009A421FD0FA684FF45053C4F201039A42F6
:1051100018D0FB68B3F1804F14D0FA684FF4806365
:10512000C4F200039A420DD0FA684FF40063C4F24F
:1051300000039A4206D0FA684FF44063C4F20003B9
:105140009A420BD1FB8A23F00203FB827A89FB8A05
:1051500013439BB243F00103FB820AE0FB8A23F076
:105160000A03FB827A89FB8A13439BB243F0010353
:10517000FB82FB68BA8A1A83FB68FA8A1A8407F1F1
:105180001C07BD4680BC704780B487B000AFF86094
:1051900079813A81FB804FF00003BB824FF000031E
:1051A000FB824FF000037B82FB681B8C9BB223F0D9
:1051B00010039AB2FB681A84FB681B8BBB82FB68E6
:1051C0001B8CFB827B894FEA03137B82BB8A23F40F
:1051D00040734FEA03534FEA1353BB82FB884FEAF5
:1051E00003339AB2BB8A1343BB823B894FEA032342
:1051F0009AB2BB8A1343BB82FA684FF43053C4F2AD
:1052000001039A421FD0FA684FF45053C4F20103CD
:105210009A4218D0FB68B3F1804F14D0FA684FF46B
:105220008063C4F200039A420DD0FA684FF4006321
:10523000C4F200039A4206D0FA684FF44063C4F205
:1052400000039A420BD1FB8A23F02003FB827A8A67
:10525000FB8A13439BB243F01003FB820AE0FB8AF4
:1052600023F0A003FB827A89FB8A13439BB243F0AD
:105270001003FB82FB68BA8A1A83FB68FA8A1A84D5
:1052800007F11C07BD4680BC704700BF80B487B0E3
:1052900000AFF86079813A81FB804FF00003BB8258
:1052A0004FF00003FB824FF000037B82FB681B8CF6
:1052B0009BB223F480739AB2FB681A84FB689B8BC1
:1052C000BB82FB681B8CFB827B894FEA03237B82BA
:1052D000BB8A23F0F303BB82FB884FEA03139AB225
:1052E0003B8913439AB2BB8A1343BB82FA684FF4DB
:1052F0003053C4F201039A421FD0FA684FF450535E
:10530000C4F201039A4218D0FB68B3F1804F14D065
:10531000FA684FF48063C4F200039A420DD0FA6831
:105320004FF40063C4F200039A4206D0FA684FF4C7
:105330004063C4F200039A420BD1FB8A23F400734A
:10534000FB827A8AFB8A13439BB243F48073FB820D
:105350000AE0FB8A23F42063FB827A89FB8A1343E9
:105360009BB243F48073FB82FB68BA8A9A83FB6822
:10537000FA8A1A8407F11C07BD4680BC704700BF3B
:1053800080B487B000AFF86079813A81FB804FF03C
:105390000003BB824FF00003FB824FF000037B82CF
:1053A000FB681B8C9BB223F480539AB2FB681A846F
:1053B000FB689B8BBB82FB681B8CFB827B894FEA63
:1053C00003337B82BB8A23F440734FEA03534FEAD3
:1053D0001353BB823B894FEA03239AB2BB8A134320
:1053E000BB82FB884FEA03339AB2BB8A1343BB826A
:1053F000FA684FF43053C4F201039A421FD0FA689E
:105400004FF45053C4F201039A4218D0FB68B3F131
:10541000804F14D0FA684FF48063C4F200039A42BC
:105420000DD0FA684FF40063C4F200039A4206D02C
:10543000FA684FF44063C4F200039A420BD1FB8A2E
:1054400023F40053FB827A8AFB8A13439BB243F412
:105450008053FB820EE0FB8A23F400734FEA434340
:105460004FEA5343FB827A89FB8A13439BB243F48E
:105470008053FB82FB68BA8A9A83FB68FA8A1A8493
:1054800007F11C07BD4680BC704700BF80B483B0E5
:1054900000AF78607B681A684FF6FE7313407A6835
:1054A00013607B684FF000021A607B684FF00002C7
:1054B0005A607B684FF000029A607B684FF00002F0
:1054C000DA607A684FF00803C4F202039A420CD102
:1054D0004FF00003C4F202034FF00002C4F20202D4
:1054E000526842F00F025A60DAE07A684FF01C030B
:1054F000C4F202039A420CD14FF00003C4F202033B
:105500004FF00002C4F20202526842F0F0025A6008
:10551000C6E07A684FF03003C4F202039A420CD11D
:105520004FF00003C4F202034FF00002C4F2020283
:10553000526842F470625A60B2E07A684FF04403F5
:10554000C4F202039A420CD14FF00003C4F20203EA
:105550004FF00002C4F20202526842F470425A60F4
:105560009EE07A684FF05803C4F202039A420CD1CD
:105570004FF00003C4F202034FF00002C4F2020233
:10558000526842F470225A608AE07A684FF06C03E5
:10559000C4F202039A420CD14FF00003C4F202039A
:1055A0004FF00002C4F20202526842F470025A60E4
:1055B00076E07A684FF08003C4F202039A420CD17D
:1055C0004FF00003C4F202034FF00002C4F20202E3
:1055D000526842F070625A6062E07A684FF4816308
:1055E000C4F202039A420CD14FF48063C4F2020366
:1055F0004FF48062C4F20202526842F00F025A6015
:105600004EE07A6840F21C43C4F202039A420CD185
:105610004FF48063C4F202034FF48062C4F20202CA
:10562000526842F0F0025A603AE07A684FF48663BA
:10563000C4F202039A420CD14FF48063C4F2020315
:105640004FF48062C4F20202526842F470625A60FF
:1056500026E07A6840F24443C4F202039A420CD135
:105660004FF48063C4F202034FF48062C4F202027A
:10567000526842F470425A6012E07A684FF48B63C9
:10568000C4F202039A420BD14FF48063C4F20203C6
:105690004FF48062C4F20202526842F470225A60EF
:1056A00007F10C07BD4680BC704700BF80B485B0D1
:1056B00000AF786039604FF00003FB607B681B68C7
:1056C000FB60FB6823F4FE4323F0F003FB603B68C0
:1056D0009A683B681B6A1A433B681B691A433B681C
:1056E0005B691A433B689B691A433B68DB691A4351
:1056F0003B685B6A1A433B689B6A1343FA6813432F
:10570000FB607B68FA681A603B68DA687B685A60FD
:105710003B681A687B689A603B685A687B68DA6005
:1057200007F11407BD4680BC704700BF80B483B04A
:1057300000AF78607B684FF000021A607B684FF022
:1057400000025A607B684FF000029A607B684FF05D
:105750000002DA607B684FF000021A617B684FF04C
:1057600000025A617B684FF000029A617B684FF03B
:105770000002DA617B684FF000021A627B684FF02A
:1057800000025A627B684FF000029A6207F10C0730
:10579000BD4680BC704700BF80B483B000AF786066
:1057A0000B46FB70FB78002B06D07B681B6843F030
:1057B00001027B681A6006E07B681A684FF6FE7388
:1057C00013407A68136007F10C07BD4680BC704730
:1057D00080B485B000AFF860B9601346FB71FB7907
:1057E000002B06D0FB681A68BB681A43FB681A6076
:1057F00007E0FB681A68BB686FEA03031A40FB689E
:105800001A6007F11407BD4680BC704780B483B0AE
:1058100000AF78600B467B807A887B685A6007F11E
:105820000C07BD4680BC704780B483B000AF786081
:105830007B685B689BB2184607F10C07BD4680BCCD
:10584000704700BF80B485B000AF78604FF00003B0
:10585000FB734FF00003BB607B6803F08053002BA9
:1058600006D04FF48063C4F202031B68BB6005E0FE
:105870004FF00003C4F202031B68BB60BA687B6888
:105880001340002B03D04FF00103FB7302E04FF0F5
:105890000003FB73FB7B184607F11407BD4680BC71
:1058A000704700BF80B483B000AF78607B6803F0BE
:1058B0008053002B06D04FF48063C4F202037A6851
:1058C0005A6005E04FF00003C4F202037A685A60A0
:1058D00007F10C07BD4680BC704700BF80B485B09F
:1058E00000AF78604FF00003FB734FF00003BB6024
:1058F0007B6803F08053002B06D04FF48063C4F222
:1059000002031B68BB6005E04FF00003C4F2020312
:105910001B68BB60BA687B681340002B03D04FF054
:105920000103FB7302E04FF00003FB73FB7B18469F
:1059300007F11407BD4680BC704700BF80B483B038
:1059400000AF78607B6803F08053002B06D04FF4E3
:105950008063C4F202037A685A6005E04FF00003E6
:10596000C4F202037A685A6007F10C07BD4680BC96
:10597000704700BF80B500AF4FF48053C4F20203FC
:105980004FF48052C4F20202126842F001021A601F
:105990004FF48052C4F202024FF48053C4F2020367
:1059A00059684FF00003CFF6FF030B4053604FF4EC
:1059B0008053C4F202034FF48052C4F20202126810
:1059C00022F0847222F480321A604FF48053C4F2C1
:1059D00002034FF48052C4F20202126822F48022C1
:1059E0001A604FF48053C4F202034FF48052C4F2A1
:1059F0000202526822F4FE025A604FF48053C4F24D
:105A000002034FF41F029A604FF48053C4F2020362
:105A10004FF00002DA6200F0A7F84FF46D43CEF2C7
:105A200000034FF000629A6080BD00BF80B485B073
:105A300000AF4FF00003FB604FF00003BB604FF07E
:105A400000037B604FF000033B604FF48053C4F2CF
:105A500002035B6803F00C03FB60FB68042B0DD0B2
:105A6000082B15D0002B53D140F21403C2F20003CF
:105A70004FF49052C0F27A021A6053E040F21403DD
:105A8000C2F200034FF49052C0F27A021A6049E069
:105A90004FF48053C4F202035B6803F47013BB60DD
:105AA0004FF48053C4F202035B6803F480337B60DD
:105AB000BB684FEA934303F10203BB607B68002B92
:105AC0000CD1BA684FF41063C0F23D0303FB02F23D
:105AD00040F21403C2F200031A6023E04FF4805333
